:1000000056C056C87CC878C077C076C075C074C06A
:1000100073C09CC871C029CB5ACB6EC06DC06CC078
:100020006BC06AC069C05A582050532F32204B65AC
:1000300079626F61726420636F6E74726F6C6C654D
:10004000722076312E300000000000000000000019
:10005000040507000000000000000000000001028D
:100060000408102040800102040810200102040846
:10007000102040804004040404040404040202022A
:100080000202020303030303030202030000000051
:100090003600330030000000000038003500320028
:1000A00000000000370034003100CE06950B11240B
:1000B0001FBECFE5D4E0DEBFCDBF10E0A0E6B0E0CC
:1000C000ECEFF8E102C005900D92A837B107D9F71F
:1000D00021E0A8E7B0E001C01D92A038B207E1F727
:1000E00010E0C7E5D0E003C02197FE01EADBC5358B
:1000F000D107D1F7B9DB00CC83CFFF920F931F93C9
:10010000CF93DF93EC01F62E08811981C801DFDB64
:10011000F81619F06F2DC801E2DBCE01DF91CF9107
:100120001F910F91FF9008958FB90000779BFECF2C
:100130008FB10895CF92DF92EF92FF92982F990F8F
:10014000990F990F30E020E080E0C12CD12C76018E
:10015000C394903390F4B701A601022E04C0440F5B
:10016000551F661F771F0A94D2F7E92FF0E0E55775
:10017000FF4FE081EE2361F0842B2F5F3F4F9F5FA5
:100180002830310531F7FF90EF90DF90CF90089540
:1001900040958423F2CFCF93DF93D82FC62F309191
:1001A0008200209183008091D800882381F09FB73E
:1001B000F8948091D800813039F58BB78093D600C0
:1001C0004BB78091D700809584238BBF9FBF3DB9EB
:1001D0002EB960E08AE0D9D88D2FA6DF8C2FA4DF5E
:1001E00061E08AE0D2D88091D800882351F09FB78F
:1001F000F8942091D8008091D600213041F48BBF33
:100200009FBFDF91CF9108959093D600E0CF8FBF2D
:10021000F8CFCF93C0E08C2F8DDFCF5F682F8C2F6E
:10022000BADFC630C1F7CF910895CF93DF93CBE803
:10023000D0E081E08AA7EDDF64EF71E080E090E03C
:1002400001D81AA6DF91CF91E4CFEBE8F0E09F014F
:100250002B5830402817390714F41192F8CF08951D
:10026000FF920F931F93CF93DF93C82F88E290E004
:10027000ECDFCFDF64E170E080E090E0E3D70BE8F3
:1002800010E0FF24F394F801F082C3DF64E170E032
:1002900080E090E0D7D7F801F786BBDF64E170E03B
:1002A00080E090E0CFD7F8011786B3DF64E170E01B
:1002B00080E090E0C7D7D0E0C557DF4FF882A9DFD4
:1002C00064E170E080E090E0BDD7F8011082188210
:1002D000A0DF64E170E080E090E0DF91CF911F91BA
:1002E0000F91FF90AFC7CF93DF9388E290E0ADDF2F
:1002F000CBE8D0E081E088A78CDF64EF71E080E09C
:1003000090E0A0D718A6DF91CF9183CFEF92FF9214
:100310001F93CF93DF9300D0CDB7DEB77C01162FAC
:10032000D6DA8A3011F0843169F411E08A3009F0AC
:1003300010E0812F0F900F90DF91CF911F91FF90D0
:10034000EF90089564E111116AE0FA82E982CE012A
:100350000196D3DEEECFCF93DF9300D0CDB7DEB7DB
:1003600061110BC064E19A838983CE010196C5DED9
:100370000F900F90DF91CF9108956AE0F4CFCF9363
:10038000803E910529F481E080938000CF9108950B
:10039000813E910531F481E08093800080937F005D
:1003A000F5CF803F910541F420918100211104C0D7
:1003B00081E080938100EACF2091800021118BC0E1
:1003C00020917F00211187C030E020E01092790059
:1003D00010927800820F931F8934910509F4A0C30D
:1003E0000CF064C18A32910509F445C30CF0E3C0F6
:1003F0008B31910509F42AC30CF0A3C08231910519
:1004000009F49AC10CF07EC08D30910509F404C442
:100410000CF064C0069709F42DC4809179008823FC
:1004200031F080917800811102C010928B00809190
:100430007E008823A9F080917D00882389F0809137
:100440007C00882369F010927E0010927D0010924B
:100450007C0010927A00109279001092780043DFAD
:1004600080917E00882369F180917D00882349F185
:1004700080917B00882329F110927E0010927D00EC
:1004800010927B0010927A001092790010927800FE
:1004900088E290E0DADEC1E0C093B300BADEC09338
:1004A0009400B7DE64EF71E080E090E0CBD610926C
:1004B000B300AFDE64EF71E080E090E0C3D610924D
:1004C00094001092810080917F00882309F4D9C3A1
:1004D00010927F005BCF20E031E078CF8E30910525
:1004E00009F46CC3419709F098CF8091810091E0A5
:1004F000892780939A0080938B0080937D0080935E
:1005000078008BCF8531910509F492C264F4449749
:1005100009F083CF8091810091E0892780939A0030
:1005200080937E007ACF8631910509F42EC14A97D7
:1005300009F073CF8091810091E089278093930027
:100540006CCF8232910509F4A4C2A4F48D319105D7
:1005500009F498C20CF421C28E31910509F4A7C2A6
:10056000819709F05ACF8091810091E0892780938B
:10057000A30053CF8532910509F4A0C274F48332ED
:10058000910509F416C2849709F047CF8091810044
:1005900091E0892780939D0040CF8632910509F430
:1005A00032C1899709F039CF8091810091E0892784
:1005B0008093920032CF8A33910509F424C2D4F596
:1005C0008133910509F426C2A4F48C32910509F413
:1005D00044C20CF4F5C18D32910509F430C28E97F6
:1005E00009F01BCF8091810091E089278093AE00B4
:1005F00014CF8433910509F4EAC174F48233910570
:1006000009F4D0C1C39709F008CF8091810091E02F
:1006100089278093B10001CF8533910509F440C249
:10062000C69709F0FACE8091810091E089278093E6
:10063000AF00F3CE8134910509F463C2A4F48C3386
:10064000910509F411C20CF4C9C18D33910509F467
:100650003CC2CE9709F0E1CE8091810091E08927DC
:1006600080939F00DACE8434910509F4DAC17CF4DA
:100670008234910509F4B9C18334910509F0CDCED6
:100680008091810091E089278093A000C6CE8534B7
:10069000910509F48EC08634910509F0BECE809193
:1006A000810091E0892780939700B7CE8437910528
:1006B00009F4B9CF0CF08DC08A35910509F466C1F3
:1006C0000CF043C08E34910509F468C2ACF48B344D
:1006D000910509F491C10CF4D3C08C34910509F44F
:1006E0002EC28D34910509F098CE8091810091E061
:1006F00089278093900091CE8535910509F43EC2FB
:100700009CF48235910509F4E7C18435910509F01F
:1007100084CE8091810081118ACE80917A008111EE
:100720001DC285E29DDD79CE8835910509F47DC233
:100730008935910509F071CE8091810091E089277A
:1007400080938B0080937A0068CE8B36910509F4F4
:10075000B5C114F58D35910509F404C274F48B35D7
:10076000910509F05ACE80918100811160CE80916F
:100770007A008111F5C18DE1D5CF8636910509F456
:10078000F8C08936910509F048CE8091810091E04A
:10079000892780938E0041CE8137910509F4C0C12D
:1007A0007CF48C36910509F490C18037910509F0ED
:1007B00034CE8091810091E0892780938F002DCEE7
:1007C0008237910509F473C18337910509F40ACF83
:1007D00024CE843121E0920709F49CCE0CF040C075
:1007E0008B37910509F40AC2ACF48637910509F4F8
:1007F000B7C00CF431CF8937910509F406C28A37A6
:10080000910509F00ACE8091810091E089278093BB
:100810009E0003CE8E37910509F419C24CF48C3733
:10082000910509F4E4C18D37910509F438CFF5CD70
:100830008131F1E09F0709F458CE8231914009F0EF
:10084000ECCD80918100882309F4F1CD609188007E
:1008500081E068276093880081E090E07CDDDDCD59
:100860008137E1E09E0709F455C064F58A3521E03F
:10087000920709F48BC0A4F48A34914009F0CDCDDD
:100880002091810081E0282720939A0030917A00FE
:1008900080E290E0332309F42DC188E190E02AC181
:1008A0008B3621E0920709F452C08037914009F05D
:1008B000B4CD8091810091E0892780939A00809344
:1008C0008C00ABCD8537F1E09F0779F18CF482374E
:1008D000E1E09E0799F18437914009F09ECD809127
:1008E000810091E0892780938B0080939F0007CE41
:1008F0008A3721E0920709F4A1C18D37914009F0B0
:100900008CCD8091810091E0892780938B0080932A
:100910009E00F5CD8091810091E0892780939A0017
:100920008093A30080937C0078CD8091810091E03A
:10093000892780938B008093A700E1CD809181006F
:1009400091E0892780938B008093AF00D8CD809170
:10095000810091E0892780938B008093AE00CFCDFA
:100960008091810091E0892780938B008093920091
:10097000C6CD8091810091E0892780938B00809380
:100980008F008093780080937B0047CD8091810019
:1009900091E089278093910040CD8091810091E082
:1009A00089278DCF8091810091E089278093B200C3
:1009B00034CD8091810091E0892780939C002DCDDA
:1009C0008091810091E089278093A40026CD8091B9
:1009D000810091E089278093AC001FCD8091810038
:1009E00091E089278093A90018CD8091810091E042
:1009F00089278093A10011CD8091810091E0892702
:100A0000809399000ACD8091810091E0892780939D
:100A1000A20003CD8091810091E089278093AA00F4
:100A2000FCCC8091810091E0892780939800F5CCDF
:100A30008091810091E0892780938D00EECC809198
:100A4000810091E089278093A500E7CC8091810007
:100A500091E0892780939400E0CC8091810091E01F
:100A600089278093AD00D9CC8091810091E08927BE
:100A70008093A800D2CC8091810091E08927809357
:100A8000AB00CBCC8091810091E0892780939500C9
:100A9000C4CC8091810091E0892780939B00BDCCDC
:100AA0008091810091E089278093B000B6CC80913D
:100AB000810091E0892780939600AFCC80918100DE
:100AC00091E089278093A600A8CC8091810091E0D5
:100AD00089278093A700A1CC2091810081E028275D
:100AE00020939A0030917A008CE190E0332311F04A
:100AF00085E090E085579F4FFC012083309379007B
:100B00008CCC2091810081E0282720939A0030919D
:100B10007A008FE190E0332369F38AE190E0EACF35
:100B20002091810081E0282720939A0030917A005B
:100B300087E190E03323F1F282E290E0DBCF209175
:100B4000810081E0282720939A0030917A008DE07F
:100B500090E0332379F288E090E0CCCF89E1E2CDD8
:100B600081E2E0CD80918100811161CC80917A0099
:100B7000811102C081E1D6CD89E0D4CD20918100E0
:100B800081E0282720939A0030917A008EE090E04F
:100B9000332309F4AFCF86E190E0ACCF2091810000
:100BA00081E0282720939A0030917A008EE190E02E
:100BB000332309F49FCF84E090E09CCF80917A00AA
:100BC000882331F080918100811102C081E048DBEF
:100BD00080917A00811121CC8091810091E0892758
:100BE00080939A0080939B001092790016CC80919C
:100BF000810091E0892780939A00D8CE809181006E
:100C000091E0892780939A00EDCE8091810091E058
:100C1000892780939A00EDCE8091810091E0892709
:100C200080938B008093A0006ACC8091810091E03A
:100C3000892780939A0080938B0061CC80918100FA
:100C400091E0892780938B008093A60058CC8091F7
:100C50008100882309F4EBCB6091890081E068274B
:100C60006093890090E080E076DB8091890080933A
:100C7000B400D3CB80918100882309F4D8CBD5DA96
:100C8000CCCB1092800082CB6091890090E080E014
:100C90003DDB809389006091880081E090E036DB45
:100CA00080938800809189008093B4000895CF924A
:100CB000DF92EF92FF92CF93DF9392D26B017C0190
:100CC0006FD18823B1F07DD1EC0181E080938A005F
:100CD000C0928400D0928500E0928600F092870056
:100CE00061E08FE052D3CE014ADB6091880082E15F
:100CF0004CD385E077D321E0892B09F420E02093C1
:100D0000B70086E06FD321E0892B09F420E020931F
:100D1000B80087E067D321E0892B09F420E0209315
:100D2000B90088E05FD321E0892B09F420E020930B
:100D3000BA0084E057D321E0892B09F420E0209306
:100D4000B60067DA8091840090918500A0918600BA
:100D5000B0918700C81AD90AEA0AFB0A88ECC816BB
:100D6000D104E104F10498F060E08FE00ED310921A
:100D70008A006091890080E108D36091880081E158
:100D8000DF91CF91FF90EF90DF90CF90FEC2DF9187
:100D9000CF91FF90EF90DF90CF9008958BEB90E094
:100DA0001AD1E2E8F0E080E5808381E08183089554
:100DB00026E040E052EC61E070E083EE90E0FAD390
:100DC00083EE90E092D326D161E08AE0A2D261E086
:100DD0008AE0DBD261E08EE09CD261E08FE099D2C4
:100DE00061E080E196D261E081E193D262E085E04A
:100DF00090D262E086E08DD262E087E08AD262E043
:100E000088E087D262E084E084D261E082E181D22E
:100E100061E083E17ED261E089E07BD261E08EE037
:100E2000B4D261E08FE0B1D260E080E1AED260E0A8
:100E300081E1ABD260E082E1A8D260E083E1A5D29B
:100E400060E089E0A2D262E083E063D262E082E007
:100E500060D280E390E0F9D917DF6091890080E1EA
:100E600094D26091880081E190D266E270E083EED6
:100E700090E0E9D438DA63E082E0AED060E08FE061
:100E800084C2CF92DF92EF92FF920F931F93CF9382
:100E90008091C300A7D2C82FA3D10091BC001091AC
:100EA000BD002091BE003091BF006B017C01C01AD3
:100EB000D10AE20AF30A970186010B3F11052105C9
:100EC000310510F01092C2006093BC007093BD0019
:100ED0008093BE009093BF008091C2008F5F80938B
:100EE000C2008A3038F4823068F58130F9F010920F
:100EF000C20020C08A30B9F18B30C9F78091C000A0
:100F00008D3FA8F78091C5008F5F803108F080E0A9
:100F10009091C400981759F3E82FF0E09091C10028
:100F2000EA53FF4F90838093C500E1CF1092C10038
:100F30001092C000CF911F910F91FF90EF90DF9022
:100F4000CF9008958091C0008C0F8093C000809155
:100F5000C10090E09595879520E0C11120E8822B93
:100F60008093C100E7CF8091C00081708C1719F089
:100F70008093C000DFCF8DEFFBCFE091C400809164
:100F8000C5008E1759F0EF5FE03108F0E0E0E09324
:100F9000C400F0E0EA53FF4F8081089580E0089597
:100FA0009091C4008091C500981749F08091C400C9
:100FB0009091C500891B87FF03C0805F089580E082
:100FC0000895EEDF811103C08FEF90E00895D5DF23
:100FD0008111FBCFF9CF0895CF93DF93D82FC62F80
:100FE0008093C30062E08C2F94D162E08D2F91D169
:100FF0001092C5001092C40080E0C23021F08FEF43
:10100000C33009F481E042E050E061E477E0DF9131
:10101000CF912FC0CF93CFB7F8948091D900811191
:101020001FC0EFE7F0E08491E8E6F0E09491E82F4C
:10103000F0E0EE0FFF1FE056FF4FA591B491EC9149
:10104000E92319F461E08AE0A0D161E08AE061D18E
:101050006C9A6E9A61E08DE05CD161E08BE059D1D1
:101060008091D9008F5F8093D900CFBFCF91089531
:101070000895823088F4E82FF0E0EE0FFF1FE05A69
:10108000FF4F71836083813041F085B78C7F482B9F
:1010900045BF8BB780648BBF089585B7837F440FAE
:1010A000551F440F551F482B45BF8BB78068F3CFA2
:1010B0001F920F920FB60F9211242F933F934F93CD
:1010C0005F936F937F938F939F93AF93BF93EF93B0
:1010D000FF93E0916000F09161000995FF91EF911D
:1010E000BF91AF919F918F917F916F915F914F9140
:1010F0003F912F910F900FBE0F901F9018951F9248
:101100000F920FB60F9211242F933F934F935F933B
:101110006F937F938F939F93AF93BF93EF93FF93BF
:10112000E0916200F09163000995FF91EF91BF910A
:10113000AF919F918F917F916F915F914F913F916F
:101140002F910F900FBE0F901F9018951F920F9226
:101150000FB60F9211242F933F938F939F93AF93CA
:10116000BF938091DB009091DC00A091DD00B091F5
:10117000DE003091DA0026E0230F2D3758F5029675
:10118000A11DB11D2093DA008093DB009093DC0059
:10119000A093DD00B093DE008091DF009091E0002D
:1011A000A091E100B091E2000196A11DB11D8093D4
:1011B000DF009093E000A093E100B093E200BF91C4
:1011C000AF919F918F913F912F910F900FBE0F90F4
:1011D0001F90189529E8230F0396A11DB11DD2CFAA
:1011E0002FB7F8946091DB007091DC008091DD00F6
:1011F0009091DE002FBF08953FB7F8948091DF00F3
:101200009091E000A091E100B091E20022B708B611
:1012100000FE05C02F3F19F00196A11DB11D3FBF73
:10122000BA2FA92F982F8827BC01CD01620F711DFD
:10123000811D911D43E0660F771F881F991F4A95F6
:10124000D1F708958F929F92AF92BF92CF92DF9283
:10125000EF92FF926B017C01CFDF4B015C01C11467
:10126000D104E104F104D9F009D3C6DF6819790982
:101270008A099B09683E73408105910580F321E04E
:10128000C21AD108E108F10888EE880E83E0981EA2
:10129000A11CB11CC114D104E104F10431F7FF9089
:1012A000EF90DF90CF90BF90AF909F908F90089578
:1012B000789483B7826083BF83B7816083BF89B727
:1012C000816089BF1EBC8EB582608EBD8EB5816087
:1012D0008EBD8FB581608FBD85B5846085BD85B5B8
:1012E000806485BD329A319A3098379A1AB8089539
:1012F000853041F0873049F0843051F48FB58F77D5
:101300008FBD08958FB58F7DFBCF85B58F7D85BD52
:101310000895CF93DF9390E0FC01E25AFF4F2491B0
:101320008B589F4FFC0184918823C9F090E0880F6F
:10133000991FFC01E056FF4FA591B491FC01EA56BC
:10134000FF4FC591D49161110DC09FB7F8948C9156
:10135000209582238C938881282328839FBFDF9147
:10136000CF910895623051F49FB7F8943C91822F49
:10137000809583238C93E8812E2BEFCF8FB7F89441
:10138000EC912E2B2C938FBFEACF1F93CF93DF933B
:10139000282F30E0F901E95BFF4F8491F901E25A0F
:1013A000FF4FD491F901EB58FF4FC491CC23A1F02A
:1013B000162F81119DDFEC2FF0E0EE0FFF1FEA5694
:1013C000FF4FA591B4918FB7F894EC91111108C01B
:1013D000D095DE23DC938FBFDF91CF911F910895CD
:1013E000DE2BF8CFCF93DF93282F30E0F901E95BB4
:1013F000FF4F8491F901E25AFF4FD491F901EB5864
:10140000FF4FC491CC2399F0811172DFEC2FF0E0F3
:10141000EE0FFF1FE457FF4FA591B491EC91ED2320
:1014200081E090E009F480E0DF91CF91089580E0C1
:1014300090E0FACFFC01918D228D892F90E0805CA5
:101440009F4F821B91098F7399270895FC01918DFD
:10145000828D981731F0828DE80FF11D858D90E017
:1014600008958FEF9FEF0895FC01918D828D98175D
:1014700061F0A28DAE0FBF2FB11D5D968C91928D44
:101480009F5F9F73928F90E008958FEF9FEF089575
:101490008CE89BE0892B39F080E090E0892B19F0F3
:1014A0003BD18111ADC50895FC01A48DA80FB92FC2
:1014B000B11DA35ABF4F2C91848D90E001968F737C
:1014C0009927848FA689B7892C93A089B1898C919B
:1014D00080648C93938D848D981306C00288F38961
:1014E000E02D80818F7D80830895CF93DF93EC0181
:1014F000888D8823B1F0AA89BB89E889F9898C9104
:1015000085FD03C0808186FD0CC00FB607FCF7CFB8
:101510008C9185FFF2CF808185FFEDCFCE01C4DFB6
:10152000EACFDF91CF910895EF92FF920F931F932F
:10153000CF93DF93EC0181E0888F9B8D8C8D981386
:1015400016C0E889F989808185FF11C0EE89FF897D
:101550006083E889F98980818064808381E090E0FC
:10156000DF91CF911F910F91FF90EF900895F62E8C
:101570000B8D10E00F5F1F4F0F731127E02E8C8D26
:101580008E110BC00FB607FCFACFE889F98980816C
:1015900085FFF5CFCE0188DFF2CFEB8DEC0FFD2F6D
:1015A000F11DE35AFF4FF0820B8FEA89FB8980819E
:1015B0008062D3CFCF92DF92EF92FF921F93CF93AF
:1015C000DF93EC016A017B01122F60E874E88EE181
:1015D00090E0A701960153D12150310941095109E9
:1015E0005695479537952795E889F98982E0808354
:1015F000211580E1380790F0E889F989108260E4CC
:1016000072E48FE090E0A701960139D121503109B1
:10161000410951095695479537952795EC85FD85E4
:101620003083EE85FF852083188E1068EC89FD8954
:101630001083EA89FB89808180618083EA89FB8944
:10164000808188608083EA89FB89808180688083CB
:10165000EA89FB8980818F7D8083DF91CF911F9103
:10166000FF90EF90DF90CF9008951F920F920FB6EA
:101670000F9211242F938F939F93EF93FF93E091F9
:10168000F300F091F4008081E091F900F091FA000C
:1016900082FD1BC090818091FC008F5F8F73209131
:1016A000FD00821741F0E091FC00F0E0ED51FF4FAA
:1016B000958F8093FC00FF91EF919F918F912F91D7
:1016C0000F900FBE0F901F9018958081F4CF1F923E
:1016D0000F920FB60F9211242F933F934F935F9366
:1016E0006F937F938F939F93AF93BF93EF93FF93EA
:1016F00083EE90E0D9DEFF91EF91BF91AF919F9182
:101700008F917F916F915F914F913F912F910F90AA
:101710000FBE0F901F90189583EE90E08BDE21E0B6
:10172000892B09F420E0822F0895E3EEF0E0138284
:10173000128288EE93E0A0E0B0E084839583A683D4
:10174000B78388E690E09183808380E490E095877A
:10175000848729E230E0378726872BE230E0318B1F
:10176000208B2AE230E0338B228B958B848B8CE2AA
:1017700090E0978B868B118E128E138E148E0895A7
:10178000AF92BF92CF92DF92EF92FF920F931F938F
:10179000CF93DF936C017B018B01040F151FEB01CD
:1017A0005E01AE18BF08C017D10759F06991D60184
:1017B000ED91FC910190F081E02DC6010995892BF6
:1017C00079F7C501DF91CF911F910F91FF90EF90B5
:1017D000DF90CF90BF90AF900895FB010190002063
:1017E000E9F73197AF01461B570BDC01ED91FC91F6
:1017F0000280F381E02D0994EF92FF920F931F93E3
:10180000CF93DF938C017B01D0E0C0E0F701EC0FB8
:10181000FD1F6491662361F0D801ED91FC91019068
:10182000F081E02DC8010995892B11F02196EECFAA
:10183000CE01DF91CF911F910F91FF90EF9008950E
:1018400064E770E0CACF0F931F93CF93DF93EC014F
:10185000D3DF8C01CE01F4DF800F911FDF91CF9198
:101860001F910F910895089523DDFDDFA1DAC8E4EB
:10187000DAE01DDA2097E9F30BDEFBCF0895A1E251
:101880001A2EAA1BBB1BFD010DC0AA1FBB1FEE1FFA
:10189000FF1FA217B307E407F50720F0A21BB30B45
:1018A000E40BF50B661F771F881F991F1A9469F7C1
:1018B00060957095809590959B01AC01BD01CF011D
:1018C0000895EE0FFF1F0590F491E02D0994E19922
:1018D000FECF9FBB8EBBE09A99278DB30895262F2C
:1018E000E199FECF9FBB8EBB2DBB0FB6F894E29A59
:0C18F000E19A0FBE01960895F894FFCF16
:1018FC003808000000000000940AC00B1A0A340AD1
:08190C00260A750A0D0A00000D
:00000001FF
