:1000000056C0F4C81AC978C077C076C075C074C02D
:1000100073C03AC971C0C7CBF8CB6EC06DC06CC09D
:100020006BC06AC069C05A582050532F32204B65AC
:1000300079626F61726420636F6E74726F6C6C654D
:10004000722076312E300000000000000000000019
:10005000040507000000000000000000000001028D
:100060000408102040800102040810200102040846
:10007000102040804004040404040404040202022A
:100080000202020303030303030202030000000051
:100090003600330030000000000038003500320028
:1000A000000000003700340031006807330C1124D1
:1000B0001FBECFE5D4E0DEBFCDBF10E0A0E6B0E0CC
:1000C000E8E3FAE102C005900D92A837B107D9F72D
:1000D00021E0A8E7B0E001C01D92A838B207E1F71F
:1000E00010E0C7E5D0E003C02197FE0188DCC535EC
:1000F000D107D1F757DC9ECC83CF1F93CF93DF93EB
:10010000EC01162F82DC181731F0612FCE01DF9140
:10011000CF911F9182CCDF91CF911F9108958FB91C
:100120000000779BFECF8FB10895CF92DF92EF92C0
:10013000FF92982F990F990F990F30E020E080E0FF
:10014000C12CD12C7601C394983390F4B701A60149
:10015000022E04C0440F551F661F771F0A94D2F762
:10016000E92FF0E0E557FF4FE081EE2361F0842BAB
:100170002F5F3F4F9F5F2830310531F7FF90EF90A1
:10018000DF90CF90089540958423F2CFCF93DF93F3
:10019000D82FC62F30918200209183008091E000FB
:1001A000882381F09FB7F8948091E000813039F581
:1001B0008BB78093DE004BB78091DF00809584235E
:1001C0008BBF9FBF3DB92EB960E08AE07CD98D2FEF
:1001D000A6DF8C2FA4DF61E08AE075D98091E00072
:1001E000882351F09FB7F8942091E0008091DE00C1
:1001F000213041F48BBF9FBFDF91CF910895909341
:10020000DE00E0CF8FBFF8CFCF93C0E08C2F8DDF23
:10021000CF5F682F8C2FBADFC730C1F7CF91089519
:10022000CF93DF93CBE8D0E081E08AA7EDDF64EFE6
:1002300071E080E090E0A4D81AA6DF91CF91E4CFDE
:10024000EBE8F0E09F012B5830402817390714F4F1
:100250001192F8CF0895FF920F931F93CF93DF93DE
:10026000C82F88E290E0ECDFCFDF64E170E080E04F
:1002700090E086D80BE810E0FF24F394F801F082B8
:10028000C3DF64E170E080E090E07AD8F801F7869F
:10029000BBDF64E170E080E090E072D8F80117867F
:1002A000B3DF64E170E080E090E06AD8D0E0C55749
:1002B000DF4FF882A9DF64E170E080E090E060D871
:1002C000F80110821882A0DF64E170E080E090E025
:1002D000DF91CF911F910F91FF9052C8CF93DF9381
:1002E00088E290E0ADDFCBE8D0E081E088A78CDF4A
:1002F00064EF71E080E090E043D818A6DF91CF91E1
:1003000083CF0F931F93CF938C01C62F7EDB8A3050
:1003100011F0843149F4C1E08A3009F0C0E08C2F3B
:10032000CF911F910F91089564E1C1116AE0C80156
:10033000E4DEF5CF611102C064E1DFCE6AE0FDCFFB
:10034000CF93803E910529F481E080938000CF9186
:100350000895813E910531F481E08093800080937F
:100360007F00F5CF803F910541F42091810021115C
:1003700004C081E080938100EACF209180002111A8
:100380008BC020917F00211187C030E020E01092C7
:10039000790010927800820F931F8634910509F43A
:1003A000EDC30CF098C18632910509F4CBC30CF073
:1003B00000C18631910509F4BEC30CF0B7C08D3081
:1003C000910509F46AC40CF08AC08530910509F4DE
:1003D0008DC40CF064C0049709F4A1C48091790025
:1003E000882331F080917800811102C010928B0037
:1003F00080917E008823A9F080917D00882389F078
:1004000080917C00882369F010927E0010927D001C
:1004100010927C0010927A0010927900109278006D
:100420005DDF80917E00882369F180917D008823C3
:1004300049F180917B00882329F110927E0010926F
:100440007D0010927B0010927A0010927900109239
:10045000780088E290E0F4DEC1E0C093B300D4DE1F
:10046000C0939400D1DE64EF71E080E090E088D723
:100470001092B300C9DE64EF71E080E090E080D7B5
:10048000109294001092810080917F00882309F4DB
:1004900069C410927F005BCF20E031E078CF8630D6
:1004A000910509F458C40C9709F098CF8091810008
:1004B000882309F49DCF8091880082FD4AC484601E
:1004C000809388006091880081E090E016DE809142
:1004D000880082FB882780F98093BD007FCF82311E
:1004E000910509F461C2A4F48E30910509F4B3C3F7
:1004F000419709F073CF8091810091E08927809323
:100500009A0080938B0080937D008093780066CF63
:100510008431910509F451C2459709F05FCF80916C
:10052000810091E0892780938D0058CF8E3191050D
:1005300009F488C1ECF48B31910509F4E0C254F45C
:100540004A9709F04BCF8091810091E089278093F1
:10055000930044CF8C31910509F476C24D9709F090
:100560003DCF8091810091E089278093950036CF1F
:100570008332910509F47DC274F48132910509F446
:1005800071C2829709F02ACF8091810091E089277A
:1005900080939B0023CF8432910509F471C2859723
:1005A00009F01CCF8091810091E089278093A600FB
:1005B00015CF8533910509F4B7C20CF043C08D32D5
:1005C000910509F495C2ECF48A32910509F4A5C2AB
:1005D00054F4899709F002CF8091810091E0892736
:1005E00080939200FBCE8B32910509F450C28C9718
:1005F00009F0F4CE8091810091E089278093AD00CD
:10060000EDCE8233910509F426C274F48E32910541
:1006100009F49FC2C19709F0E1CE8091810091E079
:1006200089278093AA00DACE8333910509F436C274
:10063000C49709F0D3CE8091810091E089278093FF
:10064000AC00CCCE8E33910509F491C20CF58B33FE
:10065000910509F431C274F48633910509F480C21E
:10066000CA9709F0BBCE8091810091E089278093E1
:10067000A200B4CE8C33910509F448C2CD9709F09D
:10068000ADCE8091810091E089278093A700A6CE0E
:100690008334910509F409C27CF48134910509F48D
:1006A00074C28234910509F099CE8091810091E065
:1006B00089278093A10092CE8434910509F40AC25F
:1006C0008534910509F08ACE8091810091E08927D7
:1006D00080938F0083CE8337910509F43AC20CF0E2
:1006E000B8C08935910509F45FC10CF075C08D342F
:1006F000910509F4F6C1DCF58A34910509F4FFC0CF
:10070000CCF48934910509F069CE2091810081E013
:10071000282720939A0030917A0087E190E03323D4
:1007200011F082E290E085579F4FFC0120833093C7
:10073000790054CE8B34910509F4C5C18C349105F0
:1007400009F04CCE2091810081E0282720939A0067
:1007500030917A008DE090E0332311F088E090E052
:1007600085579F4FFC0120833093790037CE843525
:10077000910509F41FC2ECF48E34910509F456C2B8
:100780008235910509F02ACE2091810081E0282749
:1007900020939A0030917A008CE190E0332311F09D
:1007A00085E090E085579F4FFC01208330937900CE
:1007B00015CE8535910509F424C28835910509F0D7
:1007C0000DCE8091810091E0892780939A008093DB
:1007D0008B008093780002CE8936910509F4ABC175
:1007E000DCF48B35910509F4F2C10CF426C18D358A
:1007F000910509F4F9C18636910509F0EFCD809194
:10080000810091E0892780938B0080938F008093F3
:10081000780080937B00E2CD8037910509F454CFB6
:100820004CF48B36910509F4BDCE8C36910509F454
:1008300028CFD4CD8137910509F467CF8237910550
:1008400009F0CCCD8091810091E0892780939600BA
:10085000C5CD823121E0920709F448C2DCF58A3720
:10086000910509F46FC1BCF48537910509F47FC186
:100870000CF476C18637910509F4D4C08937910507
:1008800009F0ACCD8091810091E0892780939A0096
:100890008093A100A3CD8D37910509F46FC18CF42D
:1008A0008B37910509F4F0C18C37910509F096CD8D
:1008B0008091810091E0892780939A008093B20013
:1008C0008DCD8E37910509F4FEC18131914009F437
:1008D00012CE84CD813721E0920709F477C0B4F5B8
:1008E0008A35F1E09F0709F4A8C0F4F48431E1E00F
:1008F0009E0709F462C08A34914009F06FCD2091BF
:10090000810081E0282720939A0030917A0080E2CC
:1009100090E0332311F088E190E085579F4FFC0170
:100920002083309379005ACD8B3621E0920709F469
:100930006EC08037914009F051CD8091810091E0E7
:10094000892780939A0080938C0048CD8537F1E009
:100950009F0709F446C0A4F48237E1E09E0709F43A
:100960004BC08437914009F039CD8091810091E0EE
:10097000892780938B0080939F00809378002ECDF1
:100980008A3721E0920709F493C18D37914009F02D
:1009900025CD8091810091E0892780938B00809301
:1009A0009E00809378001ACD8091810091E0892784
:1009B00080938B0080937A0011CD8091810091E02B
:1009C000892780939A0080937E0008CD80918100D2
:1009D00091E0892780939A008093A30080937C0004
:1009E000FDCC8091810091E0892780938B008093DA
:1009F000A70080937800F2CC8091810091E0892754
:100A000080938B008093AF0080937800E7CC809137
:100A1000810091E0892780938B008093AE008093C2
:100A20007800DCCC8091810091E0892780938B0055
:100A30008093920080937800D1CC8091810091E0E6
:100A4000892780939100CACC8091810091E0892709
:100A500080938C00C3CC8091810091E089278093A2
:100A6000B200BCCC8091810091E089278093A300E3
:100A7000B5CC8091810091E0892780939C00AECC19
:100A80008091810091E0892780939D00A7CC80917F
:100A9000810091E089278093A400A0CC80918100FF
:100AA00091E089278093B10099CC8091810091E0F9
:100AB00089278093A00092CC8091810091E08927C2
:100AC0008093A9008BCC8091810091E0892780934D
:100AD000990084CC8091810091E0892780939800CF
:100AE0007DCC8091810091E089278093900076CC25
:100AF0008091810091E089278093A5006FCC80913F
:100B0000810091E089278093940068CC80918100D6
:100B100091E089278093A80061CC8091810091E0C9
:100B200089278093AB005ACC8091810091E089277E
:100B30008093B00053CC8091810091E0892780930D
:100B40008E004CCC8091810091E0892780939E009B
:100B500045CC8091810091E089278093AE003ECC06
:100B60008091810091E089278093AF0037CC8091FC
:100B7000810091E0892780939F0030CC8091810093
:100B800091E089278093970029CC2091810081E012
:100B9000282720939A0030917A008FE190E0332348
:100BA00011F08AE190E085579F4FFC01208330933C
:100BB000790014CC8091810081111ACC80917A0047
:100BC000811103C085E247DB09CC89E1FCCF80912C
:100BD000810081110DCC80917A00811103C08DE1DB
:100BE0003ADBFCCB81E2FCCF80918100811100CC0B
:100BF00080917A00811103C081E12DDBEFCB89E088
:100C0000FCCF2091810081E0282720939A00309129
:100C10007A008EE090E0332311F086E190E0855772
:100C20009F4FFC01208330937900D8CB2091810025
:100C300081E0282720939A0030917A008EE190E09D
:100C4000332311F084E090E085579F4FFC0120830F
:100C500030937900C3CB80917A00882331F0809162
:100C60008100811102C081E0F6DA80917A00811161
:100C7000B5CB8091810091E0892780939A00809381
:100C80009B0010927900AACB8091810091E0892786
:100C900080939A008093A900A1CB8091810091E07C
:100CA000892780938B008093A0008093780096CB57
:100CB0008091810091E0892780938B008093A6002A
:100CC000809378008BCB80918100882309F490CBAE
:100CD0006091890081E068276093890090E080E05E
:100CE00029DB809189008093B40078CB80918100CA
:100CF000882309F47DCB8091880080FD0EC081603F
:100D0000809388006091880081E090E0F6D980911E
:100D1000880081708093BB0061CB8E7FF1CF809182
:100D20008100882309F464CB8091880081FD0FC085
:100D30008260809388006091880081E090E0DDD936
:100D400080918800869581708093BC0047CB8D7F11
:100D5000F0CF8B7FB5CB80918100882309F448CBFD
:100D60005FDA3CCB10928000F2CA6091890090E07B
:100D700080E0C7DA8093890081E090E046D6883031
:100D8000B8F480938800809189008093B4008091AA
:100D90008800982F91709093BB0081FB992790F960
:100DA0009093BC0082FB882780F98093BD00089552
:100DB0001092880060E081E090E09FD9E4CFCF926C
:100DC000DF92EF92FF92CF93DF93A8D26B017C0169
:100DD00085D1882321F193D1EC0181E080938A00B1
:100DE000C0928400D0928500E0928600F092870045
:100DF00061E08FE068D3CE01A3DA60918800617072
:100E000082E161D3609188006695617083E15BD374
:100E10006091880062FB662760F989E054D385E021
:100E20007FD321E0892B09F420E02093B70086E0EE
:100E300077D321E0892B09F420E02093B80087E0E4
:100E40006FD321E0892B09F420E02093B90088E0DA
:100E500067D321E0892B09F420E02093BA0084E0D5
:100E60005FD321E0892B09F420E02093B600CCD990
:100E70008091840090918500A0918600B0918700B8
:100E8000C81AD90AEA0AFB0A88ECC816D104E10498
:100E9000F104B8F060E08FE016D310928A00609100
:100EA000890080E110D361E080918800811101C048
:100EB00060E081E1DF91CF91FF90EF90DF90CF90E4
:100EC00002C3DF91CF91FF90EF90DF90CF90089514
:100ED00083EC90E01ED1E2E8F0E080E5808381E0E1
:100EE0008183089526E040E052EC61E070E08BEEF3
:100EF00090E0FED38BEE90E096D32AD161E08AE0B9
:100F0000A6D261E08AE0DFD261E08EE0A0D261E0AB
:100F10008FE09DD261E080E19AD261E081E197D2D9
:100F200062E085E094D262E086E091D262E087E000
:100F30008ED262E088E08BD262E084E088D261E009
:100F400082E185D261E083E182D261E089E07FD2F3
:100F500061E08EE0B8D261E08FE0B5D260E080E180
:100F6000B2D260E081E1AFD260E082E1ACD260E079
:100F700083E1A9D260E089E0A6D262E083E067D293
:100F800062E082E064D288E390E05AD9EEDE6091BC
:100F9000890080E198D261E080918800811101C0D0
:100FA00060E081E190D266E270E08BEE90E0E9D4FF
:100FB00095D963E082E0AED060E08FE084C2CF924A
:100FC000DF92EF92FF920F931F93CF938091CB000C
:100FD000A7D2C82FA3D10091C4001091C5002091C1
:100FE000C6003091C7006B017C01C01AD10AE20A29
:100FF000F30A970186010B3F11052105310510F019
:101000001092CA006093C4007093C5008093C6001C
:101010009093C7008091CA008F5F8093CA008A3086
:1010200038F4823068F58130F9F01092CA0020C09F
:101030008A30B9F18B30C9F78091C8008D3FA8F78D
:101040008091CD008F5F803108F080E09091CC00DE
:10105000981759F3E82FF0E09091C900E253FF4F41
:1010600090838093CD00E1CF1092C9001092C80008
:10107000CF911F910F91FF90EF90DF90CF90089547
:101080008091C8008C0F8093C8008091C90090E0C7
:101090009595879520E0C11120E8822B8093C900A7
:1010A000E7CF8091C80081708C1719F08093C80039
:1010B000DFCF8DEFFBCFE091CC008091CD008E177C
:1010C00059F0EF5FE03108F0E0E0E093CC00F0E0B1
:1010D000E253FF4F8081089580E008959091CC0005
:1010E0008091CD00981749F08091CC009091CD006F
:1010F000891B87FF03C0805F089580E00895EEDFBD
:10110000811103C08FEF90E00895D5DF8111FBCFEF
:10111000F9CF0895CF93DF93D82FC62F8093CB00BC
:1011200062E08C2F94D162E08D2F91D11092CD008E
:101130001092CC0080E0C23021F08FEFC33009F470
:1011400081E042E050E06FED77E0DF91CF912FC07A
:10115000CF93CFB7F8948091E10081111FC0EFE7E2
:10116000F0E08491E8E6F0E09491E82FF0E0EE0FF3
:10117000FF1FE056FF4FA591B491EC91E92319F4BC
:1011800061E08AE0A0D161E08AE061D16C9A6E9A58
:1011900061E08DE05CD161E08BE059D18091E100AC
:1011A0008F5F8093E100CFBFCF9108950895823083
:1011B00088F4E82FF0E0EE0FFF1FE05AFF4F718335
:1011C0006083813041F085B78C7F482B45BF8BB75A
:1011D00080648BBF089585B7837F440F551F440FEC
:1011E000551F482B45BF8BB78068F3CF1F920F92D6
:1011F0000FB60F9211242F933F934F935F936F93EA
:101200007F938F939F93AF93BF93EF93FF93E0915F
:101210006000F09161000995FF91EF91BF91AF914E
:101220009F918F917F916F915F914F913F912F91FE
:101230000F900FBE0F901F9018951F920F920FB630
:101240000F9211242F933F934F935F936F937F934C
:101250008F939F93AF93BF93EF93FF93E0916200BF
:10126000F09163000995FF91EF91BF91AF919F912C
:101270008F917F916F915F914F913F912F910F903F
:101280000FBE0F901F9018951F920F920FB60F92DE
:1012900011242F933F938F939F93AF93BF9380918C
:1012A000E3009091E400A091E500B091E600309158
:1012B000E20026E0230F2D3758F50296A11DB11D3F
:1012C0002093E2008093E3009093E400A093E50074
:1012D000B093E6008091E7009091E800A091E900CA
:1012E000B091EA000196A11DB11D8093E700909393
:1012F000E800A093E900B093EA00BF91AF919F91FD
:101300008F913F912F910F900FBE0F901F901895C6
:1013100029E8230F0396A11DB11DD2CF2FB7F89452
:101320006091E3007091E4008091E5009091E60007
:101330002FBF08953FB7F8948091E7009091E8009F
:10134000A091E900B091EA0022B708B600FE05C0FE
:101350002F3F19F00196A11DB11D3FBFBA2FA92F34
:10136000982F8827BC01CD01620F711D811D911D31
:1013700043E0660F771F881F991F4A95D1F708959C
:101380008F929F92AF92BF92CF92DF92EF92FF9295
:101390006B017C01CFDF4B015C01C114D104E1047E
:1013A000F104D9F009D3C6DF681979098A099B09C4
:1013B000683E73408105910580F321E0C21AD1088F
:1013C000E108F10888EE880E83E0981EA11CB11C8C
:1013D000C114D104E104F10431F7FF90EF90DF90E4
:1013E000CF90BF90AF909F908F900895789483B7DF
:1013F000826083BF83B7816083BF89B7816089BF03
:101400001EBC8EB582608EBD8EB581608EBD8FB5DF
:1014100081608FBD85B5846085BD85B5806485BDDF
:10142000329A319A3098379A1AB80895853041F037
:10143000873049F0843051F48FB58F778FBD089590
:101440008FB58F7DFBCF85B58F7D85BD0895CF93FB
:10145000DF9390E0FC01E25AFF4F24918B589F4F9D
:10146000FC0184918823C9F090E0880F991FFC014A
:10147000E056FF4FA591B491FC01EA56FF4FC5918C
:10148000D49161110DC09FB7F8948C91209582235F
:101490008C938881282328839FBFDF91CF91089563
:1014A000623051F49FB7F8943C91822F809583234A
:1014B0008C93E8812E2BEFCF8FB7F894EC912E2BE5
:1014C0002C938FBFEACF1F93CF93DF93282F30E069
:1014D000F901E95BFF4F8491F901E25AFF4FD49182
:1014E000F901EB58FF4FC491CC23A1F0162F8111C5
:1014F0009DDFEC2FF0E0EE0FFF1FEA56FF4FA591A6
:10150000B4918FB7F894EC91111108C0D095DE23F7
:10151000DC938FBFDF91CF911F910895DE2BF8CF21
:10152000CF93DF93282F30E0F901E95BFF4F8491DF
:10153000F901E25AFF4FD491F901EB58FF4FC491E2
:10154000CC2399F0811172DFEC2FF0E0EE0FFF1F3A
:10155000E457FF4FA591B491EC91ED2381E090E029
:1015600009F480E0DF91CF91089580E090E0FACF18
:10157000FC01918D228D892F90E0805C9F4F821B12
:1015800091098F7399270895FC01918D828D981789
:1015900031F0828DE80FF11D858D90E008958FEF79
:1015A0009FEF0895FC01918D828D981761F0A28DB7
:1015B000AE0FBF2FB11D5D968C91928D9F5F9F7373
:1015C000928F90E008958FEF9FEF08958AE29CE05C
:1015D000892B39F080E090E0892B19F03BD1811103
:1015E0000FC50895FC01A48DA80FB92FB11DA35AF2
:1015F000BF4F2C91848D90E001968F739927848F33
:10160000A689B7892C93A089B1898C9180648C9329
:10161000938D848D981306C00288F389E02D808114
:101620008F7D80830895CF93DF93EC01888D88238D
:10163000B1F0AA89BB89E889F9898C9185FD03C03D
:10164000808186FD0CC00FB607FCF7CF8C9185FF1B
:10165000F2CF808185FFEDCFCE01C4DFEACFDF91ED
:10166000CF910895EF92FF920F931F93CF93DF9343
:10167000EC0181E0888F9B8D8C8D981316C0E889D2
:10168000F989808185FF11C0EE89FF896083E8892F
:10169000F98980818064808381E090E0DF91CF913F
:1016A0001F910F91FF90EF900895F62E0B8D10E093
:1016B0000F5F1F4F0F731127E02E8C8D8E110BC003
:1016C0000FB607FCFACFE889F989808185FFF5CF4D
:1016D000CE0188DFF2CFEB8DEC0FFD2FF11DE35A29
:1016E000FF4FF0820B8FEA89FB8980818062D3CF24
:1016F000CF92DF92EF92FF921F93CF93DF93EC0193
:101700006A017B01122F60E874E88EE190E0A70186
:10171000960153D1215031094109510956954795F8
:1017200037952795E889F98982E08083211580E142
:10173000380790F0E889F989108260E472E48FE05C
:1017400090E0A701960139D1215031094109510991
:101750005695479537952795EC85FD853083EE8521
:10176000FF852083188E1068EC89FD891083EA8933
:10177000FB89808180618083EA89FB898081886020
:101780008083EA89FB89808180688083EA89FB897C
:1017900080818F7D8083DF91CF911F91FF90EF90AB
:1017A000DF90CF9008951F920F920FB60F921124E1
:1017B0002F938F939F93EF93FF93E091FB00F09112
:1017C000FC008081E0910101F091020182FD1BC0CB
:1017D0009081809104018F5F8F73209105018217A2
:1017E00041F0E0910401F0E0E551FF4F958F8093C7
:1017F0000401FF91EF919F918F912F910F900FBE58
:101800000F901F9018958081F4CF1F920F920FB602
:101810000F9211242F933F934F935F936F937F9376
:101820008F939F93AF93BF93EF93FF938BEE90E0D3
:10183000D9DEFF91EF91BF91AF919F918F917F91F1
:101840006F915F914F913F912F910F900FBE0F902D
:101850001F9018958BEE90E08BDE21E0892B09F428
:1018600020E0822F0895EBEEF0E01382128288EEE2
:1018700093E0A0E0B0E084839583A683B78388E6F5
:1018800090E09183808380E490E09587848729E2CB
:1018900030E0378726872BE230E0318B208B2AE23D
:1018A00030E0338B228B958B848B8CE290E0978B8E
:1018B000868B118E128E138E148E0895AF92BF9266
:1018C000CF92DF92EF92FF920F931F93CF93DF930C
:1018D0006C017B018B01040F151FEB015E01AE183B
:1018E000BF08C017D10759F06991D601ED91FC915D
:1018F0000190F081E02DC6010995892B79F7C5018A
:10190000DF91CF911F910F91FF90EF90DF90CF90DB
:10191000BF90AF900895FB0101900020E9F7319747
:10192000AF01461B570BDC01ED91FC910280F38166
:10193000E02D0994EF92FF920F931F93CF93DF93C3
:101940008C017B01D0E0C0E0F701EC0FFD1F64913A
:10195000662361F0D801ED91FC910190F081E02DBA
:10196000C8010995892B11F02196EECFCE01DF91A8
:10197000CF911F910F91FF90EF90089564E770E071
:10198000CACF0F931F93CF93DF93EC01D3DF8C016A
:10199000CE01F4DF800F911FDF91CF911F910F9146
:1019A0000895089523DDFDDF9DDAC6EEDAE007DA5B
:1019B0002097E9F30BDEFBCF0895A1E21A2EAA1BB4
:1019C000BB1BFD010DC0AA1FBB1FEE1FFF1FA217EF
:1019D000B307E407F50720F0A21BB30BE40BF50BEC
:1019E000661F771F881F991F1A9469F76095709575
:1019F000809590959B01AC01BD01CF010895EE0F3C
:101A0000FF1F0590F491E02D0994E199FECF9FBB53
:101A10008EBBE09A99278DB30895262FE199FECFCA
:101A20009FBB8EBB2DBB0FB6F894E29AE19A0FBE16
:081A300001960895F894FFCF20
:101A3800D608000000000000320B5E0CB80AD20A7B
:081A4800C40A130B0D0A000093
:00000001FF
