:1000000055C087C45FC477C076C075C074C073C064
:1000100072C00EC470C0DAC3B4C36DC06CC06BC014
:100020006AC069C068C000000000380035003200B6
:100030000000000036003300300000000000000027
:1000400000000004050700000000000000000000A0
:1000500000000000003700340031000102040810E5
:1000600020408001020408102001020408102040F2
:100070008040040404040404040402020202020294
:100080000303030303030202035A582050532F3281
:10009000204B6579626F61726420636F6E74726F5A
:1000A0006C6C65722076312E3000B00411241FBEB6
:1000B000CFE5D4E0DEBFCDBF10E0A0E6B0E0EEEECD
:1000C000F6E102C005900D92A837B107D9F721E0FB
:1000D000A8E7B0E001C01D92AB37B207E1F710E02E
:1000E000C6E5D0E003C02197FE01F9DAC535D10796
:1000F000D1F767D4FACA84CFAF92BF92CF92DF9282
:10010000EF92FF920F931F93CF93DF936C017B01CC
:100110008B01040F151FEB015E01AE18BF08C0175D
:10012000D10759F06991D601ED91FC910190F081D0
:10013000E02DC6010995892B79F7C501DF91CF9193
:100140001F910F91FF90EF90DF90CF90BF90AF90F5
:100150000895FC01918D828D981761F0A28DAE0FEC
:10016000BF2FB11D5D968C91928D9F5F9F73928F73
:1001700090E008958FEF9FEF0895FC01918D828D9F
:10018000981731F0828DE80FF11D858D90E008956C
:100190008FEF9FEF0895FC01918D228D892F90E0C4
:1001A000805C9F4F821B91098F73992708958CED76
:1001B00090E0F1DF21E0892B09F420E0822F0895FF
:1001C00080E090E0892B19F0F2DF811119CF0895BA
:1001D000FC01A48DA80FB92FB11DA35ABF4F2C91BC
:1001E000848D90E001968F739927848FA689B789B3
:1001F0002C93A089B1898C9180648C93938D848D8C
:10020000981306C00288F389E02D80818F7D80835A
:100210000895EF92FF920F931F93CF93DF93EC011A
:1002200081E0888F9B8D8C8D981316C0E889F989A1
:10023000808185FF11C0EE89FF896083E889F98993
:1002400080818064808381E090E0DF91CF911F9175
:100250000F91FF90EF900895F62E0B8D10E00F5F39
:100260001F4F0F731127E02E8C8D8E110BC00FB610
:1002700007FCFACFE889F989808185FFF5CFCE01A7
:10028000A7DFF2CFEB8DEC0FFD2FF11DE35AFF4FEF
:10029000F0820B8FEA89FB8980818062D3CFCF9374
:1002A000DF93EC01888D8823B1F0AA89BB89E889A6
:1002B000F9898C9185FD03C0808186FD0CC00FB645
:1002C00007FCF7CF8C9185FFF2CF808185FFEDCFC2
:1002D000CE017EDFEACFDF91CF910895853041F0E6
:1002E000873049F0843051F48FB58F778FBD0895F2
:1002F0008FB58F7DFBCF85B58F7D85BD0895CF935D
:10030000DF93282F30E0F901E65CFF4F8491F9017B
:10031000E55AFF4FD491F901EE58FF4FC491CC2319
:1003200099F08111DBDFEC2FF0E0EE0FFF1FE05DB5
:10033000FF4FA591B491EC91ED2381E090E009F499
:1003400080E0DF91CF91089580E090E0FACFCF92E6
:10035000DF92EF92FF920F931F9380918500CFDF82
:100360009FB7F89440918600509187006091880073
:10037000709189009FBF00917B0010917C002091BB
:100380007D0030917E006A017B01C01AD10AE20A29
:10039000F30A970186010B3F11052105310510F085
:1003A00010927A0040937B0050937C0060937D0014
:1003B00070937E0090917A009F5F90937A009A30BC
:1003C00038F4923060F59130F9F010927A0020C044
:1003D0009A30A9F19B30C9F7809178008D3FA8F73A
:1003E00080919A008F5F803108F080E090919B00AF
:1003F000981759F3E82FF0E090917900E657FF4FF6
:10040000908380939A00E1CF109279001092780047
:100410001F910F91FF90EF90DF90CF9008959091F2
:100420007800980F909378002091790030E035950E
:100430002795811180E8282B20937900E9CF9091AE
:1004400078009170981719F090937800E1CF8DEFB4
:1004500080937800DDCF1F93CF93DF93282F30E078
:10046000F901E65CFF4F8491F901E55AFF4FD49101
:10047000F901EE58FF4FC491CC23A1F0162F811142
:100480002DDFEC2FF0E0EE0FFF1FEA5DFF4FA5918F
:10049000B4918FB7F894EC91111108C0D095DE2378
:1004A000DC938FBFDF91CF911F910895DE2BF8CFA2
:1004B000CF93DF9390E0FC01E55AFF4F24918E58D3
:1004C0009F4FFC0184918823D1F090E0880F991F01
:1004D000FC01EF5AFF4FA591B491FC01EA5DFF4F7B
:1004E000C591D491623071F49FB7F8943C91822FFA
:1004F000809583238C93E8812E2B28839FBFDF91E7
:10050000CF9108958FB7F894EC912E2B2C938FBF39
:10051000F6CF3FB7F8948091800090918100A09130
:100520008200B091830022B708B600FE05C02F3FBD
:1005300019F00196A11DB11D3FBFBA2FA92F982F09
:100540008827BC01CD01620F711D811D911D43E003
:10055000660F771F881F991F4A95D1F708958F92CC
:100560009F92AF92BF92CF92DF92EF92FF924B0198
:100570005C01CFDF6B017C01CCDF6C197D098E093A
:100580009F09683E734081059105B0F321E0821A0E
:100590009108A108B10888EEC80E83E0D81EE11CBE
:1005A000F11C81149104A104B10431F7FF90EF9084
:1005B000DF90CF90BF90AF909F908F900895089557
:1005C000E7EAF0E011929F01275A304028173907D7
:1005D000CCF30895CF92DF92EF92FF920F931F9387
:1005E000CF93DF9307EA10E0D0E0C12CD12C760145
:1005F000C394F80190E080E0C0E02191B701A6012A
:10060000082E04C0440F551F661F771F0A94D2F7A7
:10061000222349F1C42B01968830910571F7DF5FE1
:100620009091790180917A019DB98EB960E08AE05C
:1006300012DFDFB90000779BFECF8FB1CFB900008A
:10064000779BFECF8FB161E08AE005DF085F1F4F27
:10065000D63079F6DF91CF911F910F91FF90EF90F7
:10066000DF90CF9008954095C423D5CFCF93DF93EB
:1006700088E290E0A5DFC7EAD0E081E088A7AADFA2
:1006800064EF71E080E090E06ADF18A6DF91CF911F
:10069000A1CFFF920F931F93CF93DF93C82F88E2D0
:1006A00090E08EDF97DF64E170E080E090E057DF5C
:1006B00007EA10E0FF24F394F801F0828BDF64E195
:1006C00070E080E090E04BDFF801F78683DF64E1C3
:1006D00070E080E090E043DFF80117867BDF64E1A3
:1006E00070E080E090E03BDFD0E0C955DF4FF8825A
:1006F00071DF64E170E080E090E031DFF8011082AA
:10070000188268DF64E170E080E090E0DF91CF91D3
:100710001F910F91FF9023CF0F931F93CF938C01C5
:10072000C4E16111CAE0C801C5D7C81731F06C2F08
:10073000C801CF911F910F91C5C7CF911F910F9104
:1007400008950F931F93CF93DF938C01C62FB2D7D9
:100750008A3011F0843151F4C1E08A3009F0C0E0F0
:100760008C2FDF91CF911F910F910895D4E1C1118A
:10077000DAE0C8019FD7D81799F36D2FC801A2D727
:10078000EFCF1F920F920FB60F9211242F933F932A
:100790004F935F936F937F938F939F93AF93BF9389
:1007A000EF93FF938CED90E013DDFF91EF91BF91FC
:1007B000AF919F918F917F916F915F914F913F91F9
:1007C0002F910F900FBE0F901F9018951F920F92B0
:1007D0000FB60F9211242F938F939F93EF93FF9354
:1007E000E091EC00F091ED008081E091F200F09159
:1007F000F30082FD1BC090818091F5008F5F8F73A5
:100800002091F600821741F0E091F500F0E0E4520B
:10081000FF4F958F8093F500FF91EF919F918F91FE
:100820002F910F900FBE0F901F9018958081F4CFDD
:100830001F920F920FB60F9211242F933F938F9315
:100840009F93AF93BF938091860090918700A09172
:100850008800B091890030917F0026E0230F2D376A
:1008600058F50296A11DB11D20937F00809386004C
:1008700090938700A0938800B093890080918000B6
:1008800090918100A0918200B09183000196A11DFA
:10089000B11D8093800090938100A0938200B0935B
:1008A0008300BF91AF919F918F913F912F910F90B6
:1008B0000FBE0F901F90189529E8230F0396A11DD6
:1008C000B11DD2CF1F920F920FB60F9211242F930A
:1008D0003F934F935F936F937F938F939F93AF93C8
:1008E000BF93EF93FF93E0916200F091630009954D
:1008F000FF91EF91BF91AF919F918F917F916F91F8
:100900005F914F913F912F910F900FBE0F901F90CD
:1009100018951F920F920FB60F9211242F933F93A9
:100920004F935F936F937F938F939F93AF93BF93F7
:10093000EF93FF93E0916000F09161000995FF91C2
:10094000EF91BF91AF919F918F917F916F915F9147
:100950004F913F912F910F900FBE0F901F901895C0
:10096000ECEDF0E01382128288EE93E0A0E0B0E0BC
:1009700084839583A683B78388E690E09183808300
:1009800080E490E09587848729E230E037872687E6
:100990002BE230E0318B208B2AE230E0338B228B4C
:1009A000958B848B8CE290E0978B868B118E128EC8
:1009B000138E148EE9E7F1E080E5808381E0818386
:1009C0000895789483B7826083BF83B7816083BFC3
:1009D00089B7816089BF1EBC8EB582608EBD8EB521
:1009E00081608EBD8FB581608FBD85B5846085BD0A
:1009F00085B5806485BD329A319A3098379A1AB895
:100A0000E091EC00F091ED0082E08083E091E8005D
:100A1000F091E9001082E091EA00F091EB0088E0AB
:100A200080831092F400E091F000F091F10086E8EC
:100A30008083E091EE00F091EF00808180618083FF
:100A4000E091EE00F091EF00808188608083E0917A
:100A5000EE00F091EF00808180688083E091EE00ED
:100A6000F091EF0080818F7D80838CED90E017DC2A
:100A7000CFB7F8948091840081111FC0ECE7F0E0BB
:100A80008491E5E6F0E09491E82FF0E0EE0FFF1F8F
:100A9000EF5AFF4FA591B491EC91E92319F461E06D
:100AA0008AE0D9DC61E08AE003DD6C9A6E9A61E04D
:100AB0008DE0FEDC61E08BE0FBDC809184008F5FE9
:100AC00080938400CFBF61E08AE0F2DC61E08AE0DD
:100AD000C2DC61E08EE0ECDC61E08FE0E9DC61E04B
:100AE00080E1E6DC61E081E1E3DC62E084E0E0DC1F
:100AF00062E085E0DDDC62E086E0DADC62E087E08F
:100B0000D7DC62E088E0D4DC61E082E1D1DC61E046
:100B100083E1CEDC61E089E0CBDC61E08EE09BDC50
:100B200061E08FE098DC60E080E195DC60E081E1ED
:100B300092DC60E082E18FDC60E083E18CDC60E0ED
:100B400089E089DC62E083E0B3DC62E082E0B0DC73
:100B500080E390E035DD6091A60090E080E0F1DD7B
:100B60008093A6006091D70081E090E0EADDC82F75
:100B70008093D7006091A6006093D00080E16BDC89
:100B80006C2F81E168DCC9E8D0E0FE016491662346
:100B900031F08CED90E03DDB2196892BB1F742E0FE
:100BA00050E064E770E08CED90E0A6DA5FDD82E073
:100BB0008093850062E083E07BDC62E082E078DCA9
:100BC00010929A0010929B0087EA91E09093630044
:100BD0008093620085B7837F886085BF8BB780680C
:100BE0008BBF60E08FE037DC8FB7F894C090860051
:100BF000D0908700E0908800F09089008FBF90919E
:100C00009B0080919A00981709F442C080919B0044
:100C100090919A00891B87FD805F8823C9F190918C
:100C20009B0080919A009817D9F080919B00909139
:100C30009A00891B87FD805F882391F0E0919B00DB
:100C400080919A00E81761F0EF5FE03108F0E0E092
:100C5000E0939B00F0E0E657FF4FC081C11101C057
:100C6000CFEFD0E0C092D800D092D900E092DA0065
:100C7000F092DB0061E08FE0EEDBC03ED10509F0D1
:100C800058C081E08093A5006091D70082E1E3DB4A
:100C900084E035DB21E0892B09F420E02093D300A8
:100CA00085E02DDB21E0892B09F420E02093D4009E
:100CB00086E025DB21E0892B09F420E02093D50094
:100CC00087E01DDB21E0892B09F420E02093D6008A
:100CD00088E015DB21E0892B09F420E02093D20085
:100CE00079DC8091D8009091D900A091DA00B09180
:100CF000DB00C81AD90AEA0AFB0AF8ECCF16D104BD
:100D0000E104F10458F060E08FE0A5DB6091A600FB
:100D100080E1A1DB6091D70081E19DDB80E090E084
:100D2000892B09F461CF43DA882309F45DCF68D9B0
:100D30005BCFC13ED10531F481E08093A500809363
:100D4000A400A2CFC03FD10541F48091A30081113E
:100D500004C081E08093A30097CF8091A50081110A
:100D600005C08091A400882309F487C080E091E049
:100D70001092A2001092A1008C0F9D1F8934910542
:100D800009F4BCC30CF064C18A32910509F45BC359
:100D90000CF0E3C08B31910509F440C30CF0A3C003
:100DA0008231910509F49BC10CF07EC08D30910514
:100DB00009F430C40CF064C0069709F45FC4809154
:100DC000A200882331F08091A100811102C010920D
:100DD000A70080919F008823A9F080919E0088231E
:100DE00089F080919D00882369F010929F001092F5
:100DF0009E0010929D001092A0001092A2001092EE
:100E0000A10034DC80919F00882369F180919E00CD
:100E1000882349F180919C00882329F110929F003A
:100E200010929E0010929C001092A0001092A200BE
:100E30001092A10088E290E0C3DBC1E0C093CF0034
:100E4000C9DBC093B000C6DB64EF71E080E090E0E6
:100E500086DB1092CF00BEDB64EF71E080E090E0B3
:100E60007EDB1092B0001092A3008091A400882332
:100E700009F416C41092A40007CF90E080E078CF68
:100E80008E30910509F49FC3419709F098CF809166
:100E9000A30091E089278093B6008093A7008093F8
:100EA0009E008093A1008BCF8531910509F4A8C2E3
:100EB00064F4449709F083CF8091A30091E08927DF
:100EC0008093B60080939F007ACF8631910509F414
:100ED00031C14A9709F073CF8091A30091E089272F
:100EE0008093AF006CCF8232910509F4BAC2A4F4AA
:100EF0008D31910509F4AEC20CF435C28E319105E5
:100F000009F4BDC2819709F05ACF8091A30091E006
:100F100089278093BF0053CF8532910509F4B6C26B
:100F200074F48332910509F42CC2849709F047CFF9
:100F30008091A30091E089278093B90040CF863249
:100F4000910509F435C1899709F039CF8091A30043
:100F500091E089278093AE0032CF8A33910509F45E
:100F60003AC2D4F58133910509F43CC2A4F48C3221
:100F7000910509F45AC20CF40BC28D32910509F4A3
:100F800046C28E9709F01BCF8091A30091E089277C
:100F90008093CA0014CF8433910509F400C274F41D
:100FA0008233910509F4E6C1C39709F008CF809117
:100FB000A30091E089278093CD0001CF853391056F
:100FC00009F456C2C69709F0FACE8091A30091E0C9
:100FD00089278093CB00F3CE8134910509F479C23F
:100FE000A4F48C33910509F427C20CF4DFC18D33CE
:100FF000910509F452C2CE9709F0E1CE8091A30089
:1010000091E089278093BB00DACE8434910509F4FE
:10101000F0C17CF48234910509F4CFC18334910589
:1010200009F0CDCE8091A30091E089278093BC0088
:10103000C6CE8534910509F491C08634910509F036
:10104000BECE8091A30091E089278093B300B7CEF4
:101050008437910509F4B9CF0CF090C08A35910519
:1010600009F47AC10CF044C08E34910509F496C29B
:10107000ACF48B34910509F4A7C10CF4D6C08C34C0
:10108000910509F450C28D34910509F098CE8091F4
:10109000A30091E089278093AC0091CE853591051E
:1010A00009F467C2A4F48235910509F4FDC18435C1
:1010B000910509F084CE8091A300811180CE8091AA
:1010C000A000882309F444C289E1E3DA78CE8835A8
:1010D000910509F4AAC28935910509F070CE809175
:1010E000A30091E089278093A7008093A00067CE9A
:1010F0008B36910509F4CAC124F58D35910509F4A3
:101100002BC284F48B35910509F059CE8091A30050
:10111000811155CE8091A000882309F41BC281E281
:10112000B8DA4DCE8636910509F409C189369105A4
:1011300009F045CE8091A30091E089278093AA0011
:101140003ECE8137910509F4D9C17CF48C369105E6
:1011500009F4A3C18037910509F031CE8091A30035
:1011600091E089278093AB002ACE8237910509F45C
:1011700086C18337910509F407CF21CE8431F1E090
:101180009F0709F499CE0CF040C08B37910509F404
:101190002FC2ACF48637910509F4C6C00CF42ECFEB
:1011A0008937910509F42DC28A37910509F007CED8
:1011B0008091A30091E089278093BA0000CE8E37FA
:1011C000910509F448C24CF48C37910509F407C223
:1011D0008D37910509F435CFF2CD8131E1E09E07DD
:1011E00009F455CE8231914009F0E9CD8091A300F8
:1011F000882309F4E4CD6091D70081E068276093EB
:10120000D70081E090E088DADACD813721E09207DB
:1012100009F45EC08CF58A35F1E09F0709F49CC0A3
:10122000CCF48A34914009F0CACD2091A30081E02A
:1012300028272093B6003091A00088E190E031117A
:1012400002C080E290E089559F4FFC0120833093DB
:10125000A200B5CD8B36F1E09F0709F45AC0803764
:10126000914009F0ACCD8091A30091E08927809353
:10127000B6008093A800A3CD8537E1E09E0799F1E1
:101280009CF4823721E09207C9F18437914009F03C
:1012900096CD8091A30091E089278093A700809349
:1012A000BB008093A1008BCD8A37F1E09F0709F442
:1012B000C7C18D37914009F082CD8091A30091E0A4
:1012C00089278093A7008093BA008093A10077CDEF
:1012D0008091A30091E089278093B6008093BF009E
:1012E00080939D006CCD8091A30091E0892780932D
:1012F000A7008093C3008093A10061CD8091A300DB
:1013000091E089278093A7008093CB008093A10070
:1013100056CD8091A30091E089278093A700809308
:10132000CA008093A1004BCD8091A30091E0892752
:101330008093A7008093AE008093A10040CD809160
:10134000A30091E089278093A7008093AB0080934E
:10135000A10080939C0033CD8091A30091E0892768
:101360008093AD002CCD8091A30091E089278093DC
:10137000A80025CD8091A30091E089278093CE001D
:101380001ECD8091A30091E089278093B80017CDEE
:101390008091A30091E089278093C00010CD8091B7
:1013A000A30091E089278093C80009CD8091A30014
:1013B00091E089278093C50002CD8091A30091E040
:1013C00089278093BD00FBCC8091A30091E0892701
:1013D0008093B500F4CC8091A30091E0892780939D
:1013E000BE00EDCC8091A30091E089278093C600D8
:1013F000E6CC8091A30091E089278093B400DFCCF4
:101400008091A30091E089278093A900D8CC809196
:10141000A30091E089278093C100D1CC8091A300E3
:1014200091E089278093B000CACC8091A30091E01D
:1014300089278093C900C3CC8091A30091E08927BC
:101440008093C400BCCC8091A30091E08927809355
:10145000C700B5CC8091A30091E089278093B100AB
:10146000AECC8091A30091E089278093B700A7CCF0
:101470008091A30091E089278093CC00A0CC80913B
:10148000A30091E089278093B20099CC8091A300BA
:1014900091E089278093C20092CC8091A30091E0D3
:1014A00089278093C3008BCC2091A30081E028275B
:1014B0002093B6003091A00085E090E0311102C089
:1014C0008CE190E089559F4FFC0120833093A2006E
:1014D00076CC2091A30081E028272093B60030919C
:1014E000A0008AE190E0311102C08FE190E08955BF
:1014F0009F4FFC0120833093A20061CC2091A30078
:1015000081E028272093B6003091A00082E290E08D
:10151000311102C087E190E089559F4FFC01208383
:101520003093A2004CCC2091A30081E02827209387
:10153000B6003091A00088E090E0311102C08DE04B
:1015400090E089559F4FFC0120833093A20037CC57
:1015500085E2BBCD8DE1E4CD8091A30081112FCC3C
:101560008091A000882319F089E093D828CC81E1EC
:10157000FCCF2091A30081E028272093B600309172
:10158000A00086E190E0311102C08EE090E0895524
:101590009F4FFC0120833093A20011CC2091A30027
:1015A00081E028272093B6003091A00084E090E0ED
:1015B000311102C08EE190E089559F4FFC012083DC
:1015C0003093A200FCCB8091A3009091A0009923BE
:1015D00009F469C08111F3CB81E05BD8F0CB809135
:1015E000A30091E089278093B6008093CE00E7CBDB
:1015F0008091A30091E089278093B6008093C50075
:10160000DECB8091A30091E089278093B600809380
:10161000BD00D5CB8091A30091E089278093A700DE
:101620008093BC008093A100CACB8091A30091E07D
:1016300089278093B6008093A7008093A100BFCB39
:101640008091A30091E089278093A7008093C20036
:101650008093A100B4CB8091A300882309F4AFCB81
:101660006091A60081E068276093A60090E080E08A
:1016700053D88091A6008093D000A1CB8091A30085
:10168000882309F49CCB81E08093D100A3D764EF39
:1016900071E080E090E063D71092D1009BD78FCBB0
:1016A0001092A500F1CA91E089278093B60080933B
:1016B000B70085CBE199FECF9FBB8EBBE09A9927FF
:1016C0008DB30895262FE199FECF9FBB8EBB2DBB16
:1016D0000FB6F894E29AE19A0FBE01960895EE0FC4
:0E16E000FF1F0590F491E02D0994F894FFCFC0
:1016EE00DF0200000000000009017C00CB00A90011
:0816FE00BD004F010D0A0000C0
:00000001FF
